{
  "contractName": "meDossier",
  "abi": [
    {
      "inputs": [],
      "stateMutability": "nonpayable",
      "type": "constructor"
    },
    {
      "anonymous": false,
      "inputs": [
        {
          "indexed": false,
          "internalType": "address",
          "name": "owner",
          "type": "address"
        },
        {
          "indexed": false,
          "internalType": "address",
          "name": "doctoraddress",
          "type": "address"
        }
      ],
      "name": "adddoctor",
      "type": "event"
    },
    {
      "inputs": [],
      "name": "dindex",
      "outputs": [
        {
          "internalType": "uint256",
          "name": "",
          "type": "uint256"
        }
      ],
      "stateMutability": "view",
      "type": "function",
      "constant": true
    },
    {
      "inputs": [
        {
          "internalType": "uint256",
          "name": "",
          "type": "uint256"
        }
      ],
      "name": "doctorList",
      "outputs": [
        {
          "internalType": "address",
          "name": "",
          "type": "address"
        }
      ],
      "stateMutability": "view",
      "type": "function",
      "constant": true
    },
    {
      "inputs": [],
      "name": "owner",
      "outputs": [
        {
          "internalType": "address",
          "name": "",
          "type": "address"
        }
      ],
      "stateMutability": "view",
      "type": "function",
      "constant": true
    },
    {
      "inputs": [],
      "name": "pindex",
      "outputs": [
        {
          "internalType": "uint256",
          "name": "",
          "type": "uint256"
        }
      ],
      "stateMutability": "view",
      "type": "function",
      "constant": true
    },
    {
      "inputs": [
        {
          "internalType": "uint256",
          "name": "",
          "type": "uint256"
        }
      ],
      "name": "verifieddoctorlist",
      "outputs": [
        {
          "internalType": "address",
          "name": "",
          "type": "address"
        }
      ],
      "stateMutability": "view",
      "type": "function",
      "constant": true
    },
    {
      "inputs": [
        {
          "internalType": "address",
          "name": "pat",
          "type": "address"
        },
        {
          "internalType": "address",
          "name": "client",
          "type": "address"
        }
      ],
      "name": "isAuthorized",
      "outputs": [
        {
          "internalType": "bool",
          "name": "success",
          "type": "bool"
        }
      ],
      "stateMutability": "view",
      "type": "function",
      "constant": true
    },
    {
      "inputs": [
        {
          "internalType": "string",
          "name": "_dname",
          "type": "string"
        },
        {
          "internalType": "string",
          "name": "_reason",
          "type": "string"
        },
        {
          "internalType": "string",
          "name": "_visitedDate",
          "type": "string"
        },
        {
          "internalType": "string",
          "name": "_ipfs",
          "type": "string"
        },
        {
          "internalType": "address",
          "name": "addr",
          "type": "address"
        }
      ],
      "name": "addRecord",
      "outputs": [],
      "stateMutability": "nonpayable",
      "type": "function"
    },
    {
      "inputs": [
        {
          "internalType": "string",
          "name": "_name",
          "type": "string"
        },
        {
          "internalType": "string",
          "name": "_phone",
          "type": "string"
        },
        {
          "internalType": "string",
          "name": "_gender",
          "type": "string"
        },
        {
          "internalType": "string",
          "name": "_dob",
          "type": "string"
        },
        {
          "internalType": "string",
          "name": "_bloodgroup",
          "type": "string"
        }
      ],
      "name": "addPatient",
      "outputs": [],
      "stateMutability": "nonpayable",
      "type": "function"
    },
    {
      "inputs": [
        {
          "internalType": "address",
          "name": "_addr",
          "type": "address"
        }
      ],
      "name": "getPatientDetails",
      "outputs": [
        {
          "internalType": "string",
          "name": "_name",
          "type": "string"
        },
        {
          "internalType": "string",
          "name": "_phone",
          "type": "string"
        },
        {
          "internalType": "string",
          "name": "_gender",
          "type": "string"
        },
        {
          "internalType": "string",
          "name": "_dob",
          "type": "string"
        },
        {
          "internalType": "string",
          "name": "_bloodgroup",
          "type": "string"
        }
      ],
      "stateMutability": "view",
      "type": "function",
      "constant": true
    },
    {
      "inputs": [
        {
          "internalType": "address",
          "name": "_addr",
          "type": "address"
        }
      ],
      "name": "getrecordlist",
      "outputs": [
        {
          "internalType": "uint256",
          "name": "",
          "type": "uint256"
        }
      ],
      "stateMutability": "view",
      "type": "function",
      "constant": true
    },
    {
      "inputs": [],
      "name": "getdoctorslist",
      "outputs": [
        {
          "internalType": "uint256",
          "name": "",
          "type": "uint256"
        }
      ],
      "stateMutability": "view",
      "type": "function",
      "constant": true
    },
    {
      "inputs": [],
      "name": "getdoctorlist",
      "outputs": [
        {
          "internalType": "uint256",
          "name": "",
          "type": "uint256"
        }
      ],
      "stateMutability": "view",
      "type": "function",
      "constant": true
    },
    {
      "inputs": [
        {
          "internalType": "address",
          "name": "_addr",
          "type": "address"
        },
        {
          "internalType": "uint256",
          "name": "_id",
          "type": "uint256"
        }
      ],
      "name": "getPatientRecords",
      "outputs": [
        {
          "internalType": "string",
          "name": "dname",
          "type": "string"
        },
        {
          "internalType": "string",
          "name": "reason",
          "type": "string"
        },
        {
          "internalType": "string",
          "name": "visitedDate",
          "type": "string"
        },
        {
          "internalType": "string",
          "name": "ipfs",
          "type": "string"
        }
      ],
      "stateMutability": "view",
      "type": "function",
      "constant": true
    },
    {
      "inputs": [
        {
          "internalType": "string",
          "name": "_name",
          "type": "string"
        },
        {
          "internalType": "string",
          "name": "_hname",
          "type": "string"
        },
        {
          "internalType": "string",
          "name": "_faculty",
          "type": "string"
        },
        {
          "internalType": "string",
          "name": "_contact",
          "type": "string"
        },
        {
          "internalType": "uint256",
          "name": "license",
          "type": "uint256"
        }
      ],
      "name": "addDoctor",
      "outputs": [],
      "stateMutability": "nonpayable",
      "type": "function"
    },
    {
      "inputs": [
        {
          "internalType": "uint256",
          "name": "_id",
          "type": "uint256"
        }
      ],
      "name": "getdoctor",
      "outputs": [
        {
          "internalType": "uint256",
          "name": "id",
          "type": "uint256"
        },
        {
          "internalType": "string",
          "name": "name",
          "type": "string"
        },
        {
          "internalType": "string",
          "name": "hospital",
          "type": "string"
        },
        {
          "internalType": "string",
          "name": "_faculty",
          "type": "string"
        },
        {
          "internalType": "address",
          "name": "addr",
          "type": "address"
        },
        {
          "internalType": "bool",
          "name": "isApproved",
          "type": "bool"
        },
        {
          "internalType": "uint256",
          "name": "licenseno",
          "type": "uint256"
        }
      ],
      "stateMutability": "view",
      "type": "function",
      "constant": true
    },
    {
      "inputs": [
        {
          "internalType": "uint256",
          "name": "_id",
          "type": "uint256"
        }
      ],
      "name": "getDoctorbyId",
      "outputs": [
        {
          "internalType": "uint256",
          "name": "id",
          "type": "uint256"
        },
        {
          "internalType": "string",
          "name": "name",
          "type": "string"
        },
        {
          "internalType": "string",
          "name": "contact",
          "type": "string"
        },
        {
          "internalType": "string",
          "name": "hname",
          "type": "string"
        },
        {
          "internalType": "string",
          "name": "faculty",
          "type": "string"
        },
        {
          "internalType": "address",
          "name": "addr",
          "type": "address"
        },
        {
          "internalType": "bool",
          "name": "isApproved",
          "type": "bool"
        },
        {
          "internalType": "uint256",
          "name": "licenseno",
          "type": "uint256"
        }
      ],
      "stateMutability": "view",
      "type": "function",
      "constant": true
    },
    {
      "inputs": [
        {
          "internalType": "string",
          "name": "_name",
          "type": "string"
        }
      ],
      "name": "getDoctorbyName",
      "outputs": [
        {
          "internalType": "uint256",
          "name": "id",
          "type": "uint256"
        },
        {
          "internalType": "string",
          "name": "name",
          "type": "string"
        },
        {
          "internalType": "string",
          "name": "contact",
          "type": "string"
        },
        {
          "internalType": "string",
          "name": "hname",
          "type": "string"
        },
        {
          "internalType": "string",
          "name": "faculty",
          "type": "string"
        },
        {
          "internalType": "address",
          "name": "addr",
          "type": "address"
        },
        {
          "internalType": "bool",
          "name": "isApproved",
          "type": "bool"
        },
        {
          "internalType": "uint256",
          "name": "licenseno",
          "type": "uint256"
        }
      ],
      "stateMutability": "view",
      "type": "function",
      "constant": true
    },
    {
      "inputs": [
        {
          "internalType": "address",
          "name": "_address",
          "type": "address"
        }
      ],
      "name": "getDoctorByAddress",
      "outputs": [
        {
          "internalType": "uint256",
          "name": "id",
          "type": "uint256"
        },
        {
          "internalType": "string",
          "name": "name",
          "type": "string"
        },
        {
          "internalType": "string",
          "name": "contact",
          "type": "string"
        },
        {
          "internalType": "string",
          "name": "hname",
          "type": "string"
        },
        {
          "internalType": "string",
          "name": "faculty",
          "type": "string"
        },
        {
          "internalType": "address",
          "name": "addr",
          "type": "address"
        },
        {
          "internalType": "bool",
          "name": "isApproved",
          "type": "bool"
        }
      ],
      "stateMutability": "view",
      "type": "function",
      "constant": true
    },
    {
      "inputs": [
        {
          "internalType": "address",
          "name": "_addr",
          "type": "address"
        }
      ],
      "name": "grantAccess",
      "outputs": [
        {
          "internalType": "bool",
          "name": "success",
          "type": "bool"
        }
      ],
      "stateMutability": "nonpayable",
      "type": "function"
    },
    {
      "inputs": [
        {
          "internalType": "address",
          "name": "_addr",
          "type": "address"
        }
      ],
      "name": "revoke_access",
      "outputs": [
        {
          "internalType": "bool",
          "name": "success",
          "type": "bool"
        }
      ],
      "stateMutability": "nonpayable",
      "type": "function"
    },
    {
      "inputs": [
        {
          "internalType": "address",
          "name": "_addr",
          "type": "address"
        }
      ],
      "name": "verifydoctor",
      "outputs": [],
      "stateMutability": "nonpayable",
      "type": "function"
    }
  ],
  "bytecode": "0x608060405260008055600060015534801561001957600080fd5b5033600560006101000a81548173ffffffffffffffffffffffffffffffffffffffff021916908373ffffffffffffffffffffffffffffffffffffffff16021790555061491e8061006a6000396000f3fe608060405234801561001057600080fd5b50600436106101375760003560e01c806358c5d4bf116100b857806391d4eb861161007c57806391d4eb86146103a9578063928ed9da146103e05780639a9f46f6146103fe578063a41062591461041a578063b2861ea914610438578063efe2ccc11461046f57610137565b806358c5d4bf146102eb5780635ad910ef1461032157806365e4ad9e1461033f57806370333b801461036f5780638da5cb5b1461038b57610137565b80632874a75f116100ff5780632874a75f1461022c578063312625f81461025f5780635658e43b1461027b57806356fa82171461029957806357315881146102b557610137565b80630ae5e7391461013c5780631257dd871461016c578063127ca4b41461019c578063248c6a31146101cc57806327b1dcee146101fc575b600080fd5b61015660048036038101906101519190613621565b6104a3565b6040516101639190613d91565b60405180910390f35b610186600480360381019061018191906139f4565b610708565b6040516101939190613d4d565b60405180910390f35b6101b660048036038101906101b191906139f4565b610747565b6040516101c39190613d4d565b60405180910390f35b6101e660048036038101906101e19190613621565b610786565b6040516101f39190614083565b60405180910390f35b61021660048036038101906102119190613621565b6107d5565b6040516102239190613d91565b60405180910390f35b6102466004803603810190610241919061368e565b6109ad565b6040516102569493929190613dac565b60405180910390f35b61027960048036038101906102749190613909565b610f19565b005b6102836113d7565b6040516102909190614083565b60405180910390f35b6102b360048036038101906102ae9190613802565b6113dd565b005b6102cf60048036038101906102ca91906139f4565b611804565b6040516102e2979695949392919061409e565b60405180910390f35b61030560048036038101906103009190613621565b611ba6565b6040516103189796959493929190614122565b60405180910390f35b610329611f99565b6040516103369190614083565b60405180910390f35b6103596004803603810190610354919061364e565b611fa6565b6040516103669190613d91565b60405180910390f35b61038960048036038101906103849190613717565b61203a565b005b6103936122d4565b6040516103a09190613d4d565b60405180910390f35b6103c360048036038101906103be91906136ce565b6122fa565b6040516103d79897969594939291906141ad565b60405180910390f35b6103e8612855565b6040516103f59190614083565b60405180910390f35b61041860048036038101906104139190613621565b61285b565b005b610422612a3c565b60405161042f9190614083565b60405180910390f35b610452600480360381019061044d91906139f4565b612a49565b6040516104669897969594939291906141ad565b60405180910390f35b61048960048036038101906104849190613621565b612df3565b60405161049a959493929190613e0d565b60405180910390f35b60008173ffffffffffffffffffffffffffffffffffffffff163373ffffffffffffffffffffffffffffffffffffffff161415610514576040517f08c379a000000000000000000000000000000000000000000000000000000000815260040161050b90613fe3565b60405180910390fd5b600960008373ffffffffffffffffffffffffffffffffffffffff1673ffffffffffffffffffffffffffffffffffffffff16815260200190815260200160002060009054906101000a900460ff166105a0576040517f08c379a000000000000000000000000000000000000000000000000000000000815260040161059790613f83565b60405180910390fd5b600a60003373ffffffffffffffffffffffffffffffffffffffff1673ffffffffffffffffffffffffffffffffffffffff16815260200190815260200160002060008373ffffffffffffffffffffffffffffffffffffffff1673ffffffffffffffffffffffffffffffffffffffff16815260200190815260200160002060009054906101000a900460ff161561066a576040517f08c379a000000000000000000000000000000000000000000000000000000000815260040161066190614023565b60405180910390fd5b6001600a60003373ffffffffffffffffffffffffffffffffffffffff1673ffffffffffffffffffffffffffffffffffffffff16815260200190815260200160002060008473ffffffffffffffffffffffffffffffffffffffff1673ffffffffffffffffffffffffffffffffffffffff16815260200190815260200160002060006101000a81548160ff02191690831515021790555060019050919050565b6004818154811061071857600080fd5b906000526020600020016000915054906101000a900473ffffffffffffffffffffffffffffffffffffffff1681565b6003818154811061075757600080fd5b906000526020600020016000915054906101000a900473ffffffffffffffffffffffffffffffffffffffff1681565b6000600660008373ffffffffffffffffffffffffffffffffffffffff1673ffffffffffffffffffffffffffffffffffffffff168152602001908152602001600020600601805490509050919050565b60008173ffffffffffffffffffffffffffffffffffffffff163373ffffffffffffffffffffffffffffffffffffffff161415610846576040517f08c379a000000000000000000000000000000000000000000000000000000000815260040161083d90613f23565b60405180910390fd5b600a60003373ffffffffffffffffffffffffffffffffffffffff1673ffffffffffffffffffffffffffffffffffffffff16815260200190815260200160002060008373ffffffffffffffffffffffffffffffffffffffff1673ffffffffffffffffffffffffffffffffffffffff16815260200190815260200160002060009054906101000a900460ff1661090f576040517f08c379a000000000000000000000000000000000000000000000000000000000815260040161090690613fc3565b60405180910390fd5b6000600a60003373ffffffffffffffffffffffffffffffffffffffff1673ffffffffffffffffffffffffffffffffffffffff16815260200190815260200160002060008473ffffffffffffffffffffffffffffffffffffffff1673ffffffffffffffffffffffffffffffffffffffff16815260200190815260200160002060006101000a81548160ff02191690831515021790555060019050919050565b606080606080600860008773ffffffffffffffffffffffffffffffffffffffff1673ffffffffffffffffffffffffffffffffffffffff16815260200190815260200160002060009054906101000a900460ff16610a3f576040517f08c379a0000000000000000000000000000000000000000000000000000000008152600401610a3690614003565b60405180910390fd5b600a60008773ffffffffffffffffffffffffffffffffffffffff1673ffffffffffffffffffffffffffffffffffffffff16815260200190815260200160002060003373ffffffffffffffffffffffffffffffffffffffff1673ffffffffffffffffffffffffffffffffffffffff16815260200190815260200160002060009054906101000a900460ff1680610aff57508573ffffffffffffffffffffffffffffffffffffffff163373ffffffffffffffffffffffffffffffffffffffff16145b15610ed557600660008773ffffffffffffffffffffffffffffffffffffffff1673ffffffffffffffffffffffffffffffffffffffff1681526020019081526020016000206006018581548110610b5857610b576144c3565b5b9060005260206000209060040201600001600660008873ffffffffffffffffffffffffffffffffffffffff1673ffffffffffffffffffffffffffffffffffffffff1681526020019081526020016000206006018681548110610bbd57610bbc6144c3565b5b9060005260206000209060040201600101600660008973ffffffffffffffffffffffffffffffffffffffff1673ffffffffffffffffffffffffffffffffffffffff1681526020019081526020016000206006018781548110610c2257610c216144c3565b5b9060005260206000209060040201600201600660008a73ffffffffffffffffffffffffffffffffffffffff1673ffffffffffffffffffffffffffffffffffffffff1681526020019081526020016000206006018881548110610c8757610c866144c3565b5b9060005260206000209060040201600301838054610ca4906143b9565b80601f0160208091040260200160405190810160405280929190818152602001828054610cd0906143b9565b8015610d1d5780601f10610cf257610100808354040283529160200191610d1d565b820191906000526020600020905b815481529060010190602001808311610d0057829003601f168201915b50505050509350828054610d30906143b9565b80601f0160208091040260200160405190810160405280929190818152602001828054610d5c906143b9565b8015610da95780601f10610d7e57610100808354040283529160200191610da9565b820191906000526020600020905b815481529060010190602001808311610d8c57829003601f168201915b50505050509250818054610dbc906143b9565b80601f0160208091040260200160405190810160405280929190818152602001828054610de8906143b9565b8015610e355780601f10610e0a57610100808354040283529160200191610e35565b820191906000526020600020905b815481529060010190602001808311610e1857829003601f168201915b50505050509150808054610e48906143b9565b80601f0160208091040260200160405190810160405280929190818152602001828054610e74906143b9565b8015610ec15780601f10610e9657610100808354040283529160200191610ec1565b820191906000526020600020905b815481529060010190602001808311610ea457829003601f168201915b505050505090509350935093509350610f10565b6040517f08c379a0000000000000000000000000000000000000000000000000000000008152600401610f0790613fa3565b60405180910390fd5b92959194509250565b600960003373ffffffffffffffffffffffffffffffffffffffff1673ffffffffffffffffffffffffffffffffffffffff16815260200190815260200160002060009054906101000a900460ff1615610fa6576040517f08c379a0000000000000000000000000000000000000000000000000000000008152600401610f9d90613f43565b60405180910390fd5b600560009054906101000a900473ffffffffffffffffffffffffffffffffffffffff1673ffffffffffffffffffffffffffffffffffffffff163373ffffffffffffffffffffffffffffffffffffffff161415611037576040517f08c379a000000000000000000000000000000000000000000000000000000000815260040161102e90613f03565b60405180910390fd5b600085511161104557600080fd5b600084511161105357600080fd5b600083511161106157600080fd5b600082511161106f57600080fd5b6000811161107c57600080fd5b60003390506003819080600181540180825580915050600190039060005260206000200160009091909190916101000a81548173ffffffffffffffffffffffffffffffffffffffff021916908373ffffffffffffffffffffffffffffffffffffffff160217905550600180546110f291906142d9565b6001819055506001600960008373ffffffffffffffffffffffffffffffffffffffff1673ffffffffffffffffffffffffffffffffffffffff16815260200190815260200160002060006101000a81548160ff02191690831515021790555085600760008373ffffffffffffffffffffffffffffffffffffffff1673ffffffffffffffffffffffffffffffffffffffff16815260200190815260200160002060010190805190602001906111a69291906134e4565b5082600760008373ffffffffffffffffffffffffffffffffffffffff1673ffffffffffffffffffffffffffffffffffffffff16815260200190815260200160002060020190805190602001906111fd9291906134e4565b5084600760008373ffffffffffffffffffffffffffffffffffffffff1673ffffffffffffffffffffffffffffffffffffffff16815260200190815260200160002060030190805190602001906112549291906134e4565b5083600760008373ffffffffffffffffffffffffffffffffffffffff1673ffffffffffffffffffffffffffffffffffffffff16815260200190815260200160002060040190805190602001906112ab9291906134e4565b5080600760008373ffffffffffffffffffffffffffffffffffffffff1673ffffffffffffffffffffffffffffffffffffffff16815260200190815260200160002060050160006101000a81548173ffffffffffffffffffffffffffffffffffffffff021916908373ffffffffffffffffffffffffffffffffffffffff16021790555081600760008373ffffffffffffffffffffffffffffffffffffffff1673ffffffffffffffffffffffffffffffffffffffff168152602001908152602001600020600601819055507f87a169b2e12895c6fbc3ab384b039f7f5a9f0c8481dba6ac2a22e385b8b71941600560009054906101000a900473ffffffffffffffffffffffffffffffffffffffff16336040516113c7929190613d68565b60405180910390a1505050505050565b60005481565b600860003373ffffffffffffffffffffffffffffffffffffffff1673ffffffffffffffffffffffffffffffffffffffff16815260200190815260200160002060009054906101000a900460ff161561146a576040517f08c379a000000000000000000000000000000000000000000000000000000000815260040161146190613ec3565b60405180910390fd5b600085511161147857600080fd5b600084511161148657600080fd5b600083511161149457600080fd5b60008251116114a257600080fd5b60008151116114b057600080fd5b6002339080600181540180825580915050600190039060005260206000200160009091909190916101000a81548173ffffffffffffffffffffffffffffffffffffffff021916908373ffffffffffffffffffffffffffffffffffffffff160217905550600160005461152291906142d9565b6000819055506001600860003373ffffffffffffffffffffffffffffffffffffffff1673ffffffffffffffffffffffffffffffffffffffff16815260200190815260200160002060006101000a81548160ff021916908315150217905550600054600660003373ffffffffffffffffffffffffffffffffffffffff1673ffffffffffffffffffffffffffffffffffffffff1681526020019081526020016000206000018190555084600660003373ffffffffffffffffffffffffffffffffffffffff1673ffffffffffffffffffffffffffffffffffffffff168152602001908152602001600020600101908051906020019061161f9291906134e4565b5083600660003373ffffffffffffffffffffffffffffffffffffffff1673ffffffffffffffffffffffffffffffffffffffff16815260200190815260200160002060020190805190602001906116769291906134e4565b5082600660003373ffffffffffffffffffffffffffffffffffffffff1673ffffffffffffffffffffffffffffffffffffffff16815260200190815260200160002060030190805190602001906116cd9291906134e4565b5081600660003373ffffffffffffffffffffffffffffffffffffffff1673ffffffffffffffffffffffffffffffffffffffff16815260200190815260200160002060040190805190602001906117249291906134e4565b5080600660003373ffffffffffffffffffffffffffffffffffffffff1673ffffffffffffffffffffffffffffffffffffffff168152602001908152602001600020600501908051906020019061177b9291906134e4565b5033600660003373ffffffffffffffffffffffffffffffffffffffff1673ffffffffffffffffffffffffffffffffffffffff16815260200190815260200160002060070160006101000a81548173ffffffffffffffffffffffffffffffffffffffff021916908373ffffffffffffffffffffffffffffffffffffffff1602179055505050505050565b600060608060606000806000806007600060038b81548110611829576118286144c3565b5b9060005260206000200160009054906101000a900473ffffffffffffffffffffffffffffffffffffffff1673ffffffffffffffffffffffffffffffffffffffff1673ffffffffffffffffffffffffffffffffffffffff16815260200190815260200160002060405180610100016040529081600082015481526020016001820180546118b4906143b9565b80601f01602080910402602001604051908101604052809291908181526020018280546118e0906143b9565b801561192d5780601f106119025761010080835404028352916020019161192d565b820191906000526020600020905b81548152906001019060200180831161191057829003601f168201915b50505050508152602001600282018054611946906143b9565b80601f0160208091040260200160405190810160405280929190818152602001828054611972906143b9565b80156119bf5780601f10611994576101008083540402835291602001916119bf565b820191906000526020600020905b8154815290600101906020018083116119a257829003601f168201915b505050505081526020016003820180546119d8906143b9565b80601f0160208091040260200160405190810160405280929190818152602001828054611a04906143b9565b8015611a515780601f10611a2657610100808354040283529160200191611a51565b820191906000526020600020905b815481529060010190602001808311611a3457829003601f168201915b50505050508152602001600482018054611a6a906143b9565b80601f0160208091040260200160405190810160405280929190818152602001828054611a96906143b9565b8015611ae35780601f10611ab857610100808354040283529160200191611ae3565b820191906000526020600020905b815481529060010190602001808311611ac657829003601f168201915b505050505081526020016005820160009054906101000a900473ffffffffffffffffffffffffffffffffffffffff1673ffffffffffffffffffffffffffffffffffffffff1673ffffffffffffffffffffffffffffffffffffffff168152602001600682015481526020016007820160009054906101000a900460ff161515151581525050905080600001518160200151826060015183608001518460a001518560e001518660c00151975097509750975097509750975050919395979092949650565b6000606080606080600080600760008973ffffffffffffffffffffffffffffffffffffffff1673ffffffffffffffffffffffffffffffffffffffff16815260200190815260200160002060070160009054906101000a900460ff16611c40576040517f08c379a0000000000000000000000000000000000000000000000000000000008152600401611c3790613e83565b60405180910390fd5b6000600760008a73ffffffffffffffffffffffffffffffffffffffff1673ffffffffffffffffffffffffffffffffffffffff1681526020019081526020016000206040518061010001604052908160008201548152602001600182018054611ca7906143b9565b80601f0160208091040260200160405190810160405280929190818152602001828054611cd3906143b9565b8015611d205780601f10611cf557610100808354040283529160200191611d20565b820191906000526020600020905b815481529060010190602001808311611d0357829003601f168201915b50505050508152602001600282018054611d39906143b9565b80601f0160208091040260200160405190810160405280929190818152602001828054611d65906143b9565b8015611db25780601f10611d8757610100808354040283529160200191611db2565b820191906000526020600020905b815481529060010190602001808311611d9557829003601f168201915b50505050508152602001600382018054611dcb906143b9565b80601f0160208091040260200160405190810160405280929190818152602001828054611df7906143b9565b8015611e445780601f10611e1957610100808354040283529160200191611e44565b820191906000526020600020905b815481529060010190602001808311611e2757829003601f168201915b50505050508152602001600482018054611e5d906143b9565b80601f0160208091040260200160405190810160405280929190818152602001828054611e89906143b9565b8015611ed65780601f10611eab57610100808354040283529160200191611ed6565b820191906000526020600020905b815481529060010190602001808311611eb957829003601f168201915b505050505081526020016005820160009054906101000a900473ffffffffffffffffffffffffffffffffffffffff1673ffffffffffffffffffffffffffffffffffffffff1673ffffffffffffffffffffffffffffffffffffffff168152602001600682015481526020016007820160009054906101000a900460ff1615151515815250509050806000015181602001518260400151836060015184608001518560a001518660e00151975097509750975097509750975050919395979092949650565b6000600380549050905090565b6000600a60008473ffffffffffffffffffffffffffffffffffffffff1673ffffffffffffffffffffffffffffffffffffffff16815260200190815260200160002060008373ffffffffffffffffffffffffffffffffffffffff1673ffffffffffffffffffffffffffffffffffffffff16815260200190815260200160002060009054906101000a900460ff16905092915050565b600860008273ffffffffffffffffffffffffffffffffffffffff1673ffffffffffffffffffffffffffffffffffffffff16815260200190815260200160002060009054906101000a900460ff166120c6576040517f08c379a00000000000000000000000000000000000000000000000000000000081526004016120bd90614003565b60405180910390fd5b600a60008273ffffffffffffffffffffffffffffffffffffffff1673ffffffffffffffffffffffffffffffffffffffff16815260200190815260200160002060003373ffffffffffffffffffffffffffffffffffffffff1673ffffffffffffffffffffffffffffffffffffffff16815260200190815260200160002060009054906101000a900460ff168061218657508073ffffffffffffffffffffffffffffffffffffffff163373ffffffffffffffffffffffffffffffffffffffff16145b1561229257600660008273ffffffffffffffffffffffffffffffffffffffff1673ffffffffffffffffffffffffffffffffffffffff168152602001908152602001600020600601604051806080016040528087815260200186815260200185815260200184815250908060018154018082558091505060019003906000526020600020906004020160009091909190915060008201518160000190805190602001906122339291906134e4565b5060208201518160010190805190602001906122509291906134e4565b50604082015181600201908051906020019061226d9291906134e4565b50606082015181600301908051906020019061228a9291906134e4565b5050506122cd565b6040517f08c379a00000000000000000000000000000000000000000000000000000000081526004016122c490614063565b60405180910390fd5b5050505050565b600560009054906101000a900473ffffffffffffffffffffffffffffffffffffffff1681565b600060608060608060008060008060009050600090505b6003805490508110156123d9578980519060200120600760006003848154811061233e5761233d6144c3565b5b9060005260206000200160009054906101000a900473ffffffffffffffffffffffffffffffffffffffff1673ffffffffffffffffffffffffffffffffffffffff1673ffffffffffffffffffffffffffffffffffffffff1681526020019081526020016000206001016040516123b39190613d36565b604051809103902014156123c6576123d9565b80806123d19061441c565b915050612311565b898051906020012060076000600384815481106123f9576123f86144c3565b5b9060005260206000200160009054906101000a900473ffffffffffffffffffffffffffffffffffffffff1673ffffffffffffffffffffffffffffffffffffffff1673ffffffffffffffffffffffffffffffffffffffff16815260200190815260200160002060010160405161246e9190613d36565b6040518091039020146124b6576040517f08c379a00000000000000000000000000000000000000000000000000000000081526004016124ad90614043565b60405180910390fd5b600060076000600384815481106124d0576124cf6144c3565b5b9060005260206000200160009054906101000a900473ffffffffffffffffffffffffffffffffffffffff1673ffffffffffffffffffffffffffffffffffffffff1673ffffffffffffffffffffffffffffffffffffffff168152602001908152602001600020604051806101000160405290816000820154815260200160018201805461255b906143b9565b80601f0160208091040260200160405190810160405280929190818152602001828054612587906143b9565b80156125d45780601f106125a9576101008083540402835291602001916125d4565b820191906000526020600020905b8154815290600101906020018083116125b757829003601f168201915b505050505081526020016002820180546125ed906143b9565b80601f0160208091040260200160405190810160405280929190818152602001828054612619906143b9565b80156126665780601f1061263b57610100808354040283529160200191612666565b820191906000526020600020905b81548152906001019060200180831161264957829003601f168201915b5050505050815260200160038201805461267f906143b9565b80601f01602080910402602001604051908101604052809291908181526020018280546126ab906143b9565b80156126f85780601f106126cd576101008083540402835291602001916126f8565b820191906000526020600020905b8154815290600101906020018083116126db57829003601f168201915b50505050508152602001600482018054612711906143b9565b80601f016020809104026020016040519081016040528092919081815260200182805461273d906143b9565b801561278a5780601f1061275f5761010080835404028352916020019161278a565b820191906000526020600020905b81548152906001019060200180831161276d57829003601f168201915b505050505081526020016005820160009054906101000a900473ffffffffffffffffffffffffffffffffffffffff1673ffffffffffffffffffffffffffffffffffffffff1673ffffffffffffffffffffffffffffffffffffffff168152602001600682015481526020016007820160009054906101000a900460ff1615151515815250509050806000015181602001518260400151836060015184608001518560a001518660e001518760c00151995099509950995099509950995099505050919395975091939597565b60015481565b3373ffffffffffffffffffffffffffffffffffffffff16600560009054906101000a900473ffffffffffffffffffffffffffffffffffffffff1673ffffffffffffffffffffffffffffffffffffffff16146128eb576040517f08c379a00000000000000000000000000000000000000000000000000000000081526004016128e290613ea3565b60405180910390fd5b600760008273ffffffffffffffffffffffffffffffffffffffff1673ffffffffffffffffffffffffffffffffffffffff16815260200190815260200160002060070160009054906101000a900460ff161561297b576040517f08c379a000000000000000000000000000000000000000000000000000000000815260040161297290613ee3565b60405180910390fd5b6001600760008373ffffffffffffffffffffffffffffffffffffffff1673ffffffffffffffffffffffffffffffffffffffff16815260200190815260200160002060070160006101000a81548160ff0219169083151502179055506004819080600181540180825580915050600190039060005260206000200160009091909190916101000a81548173ffffffffffffffffffffffffffffffffffffffff021916908373ffffffffffffffffffffffffffffffffffffffff16021790555050565b6000600480549050905090565b60006060806060806000806000806007600060048c81548110612a6f57612a6e6144c3565b5b9060005260206000200160009054906101000a900473ffffffffffffffffffffffffffffffffffffffff1673ffffffffffffffffffffffffffffffffffffffff1673ffffffffffffffffffffffffffffffffffffffff1681526020019081526020016000206040518061010001604052908160008201548152602001600182018054612afa906143b9565b80601f0160208091040260200160405190810160405280929190818152602001828054612b26906143b9565b8015612b735780601f10612b4857610100808354040283529160200191612b73565b820191906000526020600020905b815481529060010190602001808311612b5657829003601f168201915b50505050508152602001600282018054612b8c906143b9565b80601f0160208091040260200160405190810160405280929190818152602001828054612bb8906143b9565b8015612c055780601f10612bda57610100808354040283529160200191612c05565b820191906000526020600020905b815481529060010190602001808311612be857829003601f168201915b50505050508152602001600382018054612c1e906143b9565b80601f0160208091040260200160405190810160405280929190818152602001828054612c4a906143b9565b8015612c975780601f10612c6c57610100808354040283529160200191612c97565b820191906000526020600020905b815481529060010190602001808311612c7a57829003601f168201915b50505050508152602001600482018054612cb0906143b9565b80601f0160208091040260200160405190810160405280929190818152602001828054612cdc906143b9565b8015612d295780601f10612cfe57610100808354040283529160200191612d29565b820191906000526020600020905b815481529060010190602001808311612d0c57829003601f168201915b505050505081526020016005820160009054906101000a900473ffffffffffffffffffffffffffffffffffffffff1673ffffffffffffffffffffffffffffffffffffffff1673ffffffffffffffffffffffffffffffffffffffff168152602001600682015481526020016007820160009054906101000a900460ff1615151515815250509050806000015181602001518260400151836060015184608001518560a001518660e001518760c001519850985098509850985098509850985050919395975091939597565b6060806060806060600860008773ffffffffffffffffffffffffffffffffffffffff1673ffffffffffffffffffffffffffffffffffffffff16815260200190815260200160002060009054906101000a900460ff16612e87576040517f08c379a0000000000000000000000000000000000000000000000000000000008152600401612e7e90613f63565b60405180910390fd5b6000600660008873ffffffffffffffffffffffffffffffffffffffff1673ffffffffffffffffffffffffffffffffffffffff1681526020019081526020016000206040518061010001604052908160008201548152602001600182018054612eee906143b9565b80601f0160208091040260200160405190810160405280929190818152602001828054612f1a906143b9565b8015612f675780601f10612f3c57610100808354040283529160200191612f67565b820191906000526020600020905b815481529060010190602001808311612f4a57829003601f168201915b50505050508152602001600282018054612f80906143b9565b80601f0160208091040260200160405190810160405280929190818152602001828054612fac906143b9565b8015612ff95780601f10612fce57610100808354040283529160200191612ff9565b820191906000526020600020905b815481529060010190602001808311612fdc57829003601f168201915b50505050508152602001600382018054613012906143b9565b80601f016020809104026020016040519081016040528092919081815260200182805461303e906143b9565b801561308b5780601f106130605761010080835404028352916020019161308b565b820191906000526020600020905b81548152906001019060200180831161306e57829003601f168201915b505050505081526020016004820180546130a4906143b9565b80601f01602080910402602001604051908101604052809291908181526020018280546130d0906143b9565b801561311d5780601f106130f25761010080835404028352916020019161311d565b820191906000526020600020905b81548152906001019060200180831161310057829003601f168201915b50505050508152602001600582018054613136906143b9565b80601f0160208091040260200160405190810160405280929190818152602001828054613162906143b9565b80156131af5780601f10613184576101008083540402835291602001916131af565b820191906000526020600020905b81548152906001019060200180831161319257829003601f168201915b5050505050815260200160068201805480602002602001604051908101604052809291908181526020016000905b828210156134575783829060005260206000209060040201604051806080016040529081600082018054613210906143b9565b80601f016020809104026020016040519081016040528092919081815260200182805461323c906143b9565b80156132895780601f1061325e57610100808354040283529160200191613289565b820191906000526020600020905b81548152906001019060200180831161326c57829003601f168201915b505050505081526020016001820180546132a2906143b9565b80601f01602080910402602001604051908101604052809291908181526020018280546132ce906143b9565b801561331b5780601f106132f05761010080835404028352916020019161331b565b820191906000526020600020905b8154815290600101906020018083116132fe57829003601f168201915b50505050508152602001600282018054613334906143b9565b80601f0160208091040260200160405190810160405280929190818152602001828054613360906143b9565b80156133ad5780601f10613382576101008083540402835291602001916133ad565b820191906000526020600020905b81548152906001019060200180831161339057829003601f168201915b505050505081526020016003820180546133c6906143b9565b80601f01602080910402602001604051908101604052809291908181526020018280546133f2906143b9565b801561343f5780601f106134145761010080835404028352916020019161343f565b820191906000526020600020905b81548152906001019060200180831161342257829003601f168201915b505050505081525050815260200190600101906131dd565b5050505081526020016007820160009054906101000a900473ffffffffffffffffffffffffffffffffffffffff1673ffffffffffffffffffffffffffffffffffffffff1673ffffffffffffffffffffffffffffffffffffffff1681525050905080602001518160400151826060015183608001518460a00151955095509550955095505091939590929450565b8280546134f0906143b9565b90600052602060002090601f0160209004810192826135125760008555613559565b82601f1061352b57805160ff1916838001178555613559565b82800160010185558215613559579182015b8281111561355857825182559160200191906001019061353d565b5b509050613566919061356a565b5090565b5b8082111561358357600081600090555060010161356b565b5090565b600061359a6135958461426c565b614247565b9050828152602081018484840111156135b6576135b5614526565b5b6135c1848285614377565b509392505050565b6000813590506135d8816148ba565b92915050565b600082601f8301126135f3576135f2614521565b5b8135613603848260208601613587565b91505092915050565b60008135905061361b816148d1565b92915050565b60006020828403121561363757613636614530565b5b6000613645848285016135c9565b91505092915050565b6000806040838503121561366557613664614530565b5b6000613673858286016135c9565b9250506020613684858286016135c9565b9150509250929050565b600080604083850312156136a5576136a4614530565b5b60006136b3858286016135c9565b92505060206136c48582860161360c565b9150509250929050565b6000602082840312156136e4576136e3614530565b5b600082013567ffffffffffffffff8111156137025761370161452b565b5b61370e848285016135de565b91505092915050565b600080600080600060a0868803121561373357613732614530565b5b600086013567ffffffffffffffff8111156137515761375061452b565b5b61375d888289016135de565b955050602086013567ffffffffffffffff81111561377e5761377d61452b565b5b61378a888289016135de565b945050604086013567ffffffffffffffff8111156137ab576137aa61452b565b5b6137b7888289016135de565b935050606086013567ffffffffffffffff8111156137d8576137d761452b565b5b6137e4888289016135de565b92505060806137f5888289016135c9565b9150509295509295909350565b600080600080600060a0868803121561381e5761381d614530565b5b600086013567ffffffffffffffff81111561383c5761383b61452b565b5b613848888289016135de565b955050602086013567ffffffffffffffff8111156138695761386861452b565b5b613875888289016135de565b945050604086013567ffffffffffffffff8111156138965761389561452b565b5b6138a2888289016135de565b935050606086013567ffffffffffffffff8111156138c3576138c261452b565b5b6138cf888289016135de565b925050608086013567ffffffffffffffff8111156138f0576138ef61452b565b5b6138fc888289016135de565b9150509295509295909350565b600080600080600060a0868803121561392557613924614530565b5b600086013567ffffffffffffffff8111156139435761394261452b565b5b61394f888289016135de565b955050602086013567ffffffffffffffff8111156139705761396f61452b565b5b61397c888289016135de565b945050604086013567ffffffffffffffff81111561399d5761399c61452b565b5b6139a9888289016135de565b935050606086013567ffffffffffffffff8111156139ca576139c961452b565b5b6139d6888289016135de565b92505060806139e78882890161360c565b9150509295509295909350565b600060208284031215613a0a57613a09614530565b5b6000613a188482850161360c565b91505092915050565b613a2a8161432f565b82525050565b613a3981614341565b82525050565b60008154613a4c816143b9565b613a5681866142bd565b94506001821660008114613a715760018114613a8257613ab5565b60ff19831686528186019350613ab5565b613a8b8561429d565b60005b83811015613aad57815481890152600182019150602081019050613a8e565b838801955050505b50505092915050565b6000613ac9826142b2565b613ad381856142c8565b9350613ae3818560208601614386565b613aec81614535565b840191505092915050565b6000613b046027836142c8565b9150613b0f82614546565b604082019050919050565b6000613b276021836142c8565b9150613b3282614595565b604082019050919050565b6000613b4a601e836142c8565b9150613b55826145e4565b602082019050919050565b6000613b6d6012836142c8565b9150613b788261460d565b602082019050919050565b6000613b906028836142c8565b9150613b9b82614636565b604082019050919050565b6000613bb36019836142c8565b9150613bbe82614685565b602082019050919050565b6000613bd66012836142c8565b9150613be1826146ae565b602082019050919050565b6000613bf96026836142c8565b9150613c04826146d7565b604082019050919050565b6000613c1c6018836142c8565b9150613c2782614726565b602082019050919050565b6000613c3f6019836142c8565b9150613c4a8261474f565b602082019050919050565b6000613c62601a836142c8565b9150613c6d82614778565b602082019050919050565b6000613c856017836142c8565b9150613c90826147a1565b602082019050919050565b6000613ca86025836142c8565b9150613cb3826147ca565b604082019050919050565b6000613ccb601a836142c8565b9150613cd682614819565b602082019050919050565b6000613cee6029836142c8565b9150613cf982614842565b604082019050919050565b6000613d116017836142c8565b9150613d1c82614891565b602082019050919050565b613d308161436d565b82525050565b6000613d428284613a3f565b915081905092915050565b6000602082019050613d626000830184613a21565b92915050565b6000604082019050613d7d6000830185613a21565b613d8a6020830184613a21565b9392505050565b6000602082019050613da66000830184613a30565b92915050565b60006080820190508181036000830152613dc68187613abe565b90508181036020830152613dda8186613abe565b90508181036040830152613dee8185613abe565b90508181036060830152613e028184613abe565b905095945050505050565b600060a0820190508181036000830152613e278188613abe565b90508181036020830152613e3b8187613abe565b90508181036040830152613e4f8186613abe565b90508181036060830152613e638185613abe565b90508181036080830152613e778184613abe565b90509695505050505050565b60006020820190508181036000830152613e9c81613af7565b9050919050565b60006020820190508181036000830152613ebc81613b1a565b9050919050565b60006020820190508181036000830152613edc81613b3d565b9050919050565b60006020820190508181036000830152613efc81613b60565b9050919050565b60006020820190508181036000830152613f1c81613b83565b9050919050565b60006020820190508181036000830152613f3c81613ba6565b9050919050565b60006020820190508181036000830152613f5c81613bc9565b9050919050565b60006020820190508181036000830152613f7c81613bec565b9050919050565b60006020820190508181036000830152613f9c81613c0f565b9050919050565b60006020820190508181036000830152613fbc81613c32565b9050919050565b60006020820190508181036000830152613fdc81613c55565b9050919050565b60006020820190508181036000830152613ffc81613c78565b9050919050565b6000602082019050818103600083015261401c81613c9b565b9050919050565b6000602082019050818103600083015261403c81613cbe565b9050919050565b6000602082019050818103600083015261405c81613ce1565b9050919050565b6000602082019050818103600083015261407c81613d04565b9050919050565b60006020820190506140986000830184613d27565b92915050565b600060e0820190506140b3600083018a613d27565b81810360208301526140c58189613abe565b905081810360408301526140d98188613abe565b905081810360608301526140ed8187613abe565b90506140fc6080830186613a21565b61410960a0830185613a30565b61411660c0830184613d27565b98975050505050505050565b600060e082019050614137600083018a613d27565b81810360208301526141498189613abe565b9050818103604083015261415d8188613abe565b905081810360608301526141718187613abe565b905081810360808301526141858186613abe565b905061419460a0830185613a21565b6141a160c0830184613a30565b98975050505050505050565b6000610100820190506141c3600083018b613d27565b81810360208301526141d5818a613abe565b905081810360408301526141e98189613abe565b905081810360608301526141fd8188613abe565b905081810360808301526142118187613abe565b905061422060a0830186613a21565b61422d60c0830185613a30565b61423a60e0830184613d27565b9998505050505050505050565b6000614251614262565b905061425d82826143eb565b919050565b6000604051905090565b600067ffffffffffffffff821115614287576142866144f2565b5b61429082614535565b9050602081019050919050565b60008190508160005260206000209050919050565b600081519050919050565b600081905092915050565b600082825260208201905092915050565b60006142e48261436d565b91506142ef8361436d565b9250827fffffffffffffffffffffffffffffffffffffffffffffffffffffffffffffffff0382111561432457614323614465565b5b828201905092915050565b600061433a8261434d565b9050919050565b60008115159050919050565b600073ffffffffffffffffffffffffffffffffffffffff82169050919050565b6000819050919050565b82818337600083830152505050565b60005b838110156143a4578082015181840152602081019050614389565b838111156143b3576000848401525b50505050565b600060028204905060018216806143d157607f821691505b602082108114156143e5576143e4614494565b5b50919050565b6143f482614535565b810181811067ffffffffffffffff82111715614413576144126144f2565b5b80604052505050565b60006144278261436d565b91507fffffffffffffffffffffffffffffffffffffffffffffffffffffffffffffffff82141561445a57614459614465565b5b600182019050919050565b7f4e487b7100000000000000000000000000000000000000000000000000000000600052601160045260246000fd5b7f4e487b7100000000000000000000000000000000000000000000000000000000600052602260045260246000fd5b7f4e487b7100000000000000000000000000000000000000000000000000000000600052603260045260246000fd5b7f4e487b7100000000000000000000000000000000000000000000000000000000600052604160045260246000fd5b600080fd5b600080fd5b600080fd5b600080fd5b6000601f19601f8301169050919050565b7f446f63746f72206973206e6f7420417070726f766564206f7220646f65736e2760008201527f7420657869737400000000000000000000000000000000000000000000000000602082015250565b7f4f6e6c79206f776e65722063616e2063616c6c20746869732066756e6374696f60008201527f6e00000000000000000000000000000000000000000000000000000000000000602082015250565b7f416c72656164792050617469656e74206163636f756e74206578697374730000600082015250565b7f416c726561647920726567697374657265640000000000000000000000000000600082015250565b7f436f6e7472616374206f776e65722063616e6e6f74207265676973746572206160008201527f7320646f63746f72000000000000000000000000000000000000000000000000602082015250565b7f596f752063616e27742072656d6f766520796f757273656c6600000000000000600082015250565b7f416c726561647920526567697374657265640000000000000000000000000000600082015250565b7f4e6f2050617469656e747320666f756e642061742074686520676976656e206160008201527f6464726573730000000000000000000000000000000000000000000000000000602082015250565b7f4e6f74207265676973746572656420617320646f63746f720000000000000000600082015250565b7f5265636f72642063616e6e6f7420626520616363657373656400000000000000600082015250565b7f55736572206973206e6f7420617574686f72697a656420796574000000000000600082015250565b7f596f752063616e6e6f742061646420796f757273656c66000000000000000000600082015250565b7f4e6f2070617469656e7420666f756e642061742074686520676976656e20616460008201527f6472657373000000000000000000000000000000000000000000000000000000602082015250565b7f5573657220697320616c726561647920617574686f72697a6564000000000000600082015250565b7f446f63746f7220646f65736e277420657869737473207769746820746865206760008201527f6976656e206e616d650000000000000000000000000000000000000000000000602082015250565b7f5265636f72642063616e6e6f7420626520616464656420000000000000000000600082015250565b6148c38161432f565b81146148ce57600080fd5b50565b6148da8161436d565b81146148e557600080fd5b5056fea2646970667358221220538d4216df38bb257db3d14119f90a0273ab95538ff48764e7cd2ea24777654464736f6c63430008060033",
  "immutableReferences": {},
  "source": "// SPDX-License-Identifier: MIT\npragma solidity ^0.8.4;\n\ncontract meDossier{\n    \n    uint256 public pindex=0;\n    uint256 public dindex=0;\n    \n    struct Records {\n    string dname;\n    string reason;\n    string visitedDate;\n    string ipfs;\n    }\n\n    struct doctor {\n        uint256 id;\n        string name;\n        string contact;\n        string hname;\n        string faculty;\n        address addr;\n        uint256 licenseno;\n        bool isApproved;\n    }\n    \n    struct patient{\n        uint256 id;\n        string name;\n        string phone;\n        string gender;\n        string dob;\n        string bloodgroup;\n        Records[] records;\n        address addr;\n    }\n    address[] private patientList;\n    address[] public doctorList;\n    address [] public verifieddoctorlist;\n    address public  owner;\n\n    mapping(address=>patient) patients;\n    mapping(address=>doctor) doctors;\n    mapping(address=>bool) isPatient;\n    mapping(address=>bool) isDoctor;\n    mapping(address=>mapping(address=>bool)) Authorized;\n    \n    event adddoctor(address owner, address doctoraddress);\n    constructor(){\n        owner = msg.sender;\n        \n    }\n\n    function isAuthorized(address pat,address client ) public view returns (bool success){\n        return Authorized[pat][client];\n    }\n    \n\n\n    function addRecord(string memory _dname,string memory _reason,string memory _visitedDate,string memory _ipfs, address addr) public{\n        require(isPatient[addr],\"No patient found at the given address\");\n        \n        if(Authorized[addr][msg.sender] || msg.sender == addr){\n                patients[addr].records.push(Records(_dname,_reason,_visitedDate,_ipfs));\n        }\n        else \n        revert(\"Record cannot be added \");\n       \n       \n        // require(Authorized[addr][msg.sender],\"You do not have permission to add records!\");\n        // require(isPatient[addr],\"User Not registered\");\n        // patients[addr].records.push(Records(_dname,_reason,_visitedDate,_ipfs));\n    }\n    \n    function addPatient(string memory _name,string memory _phone,string memory _gender,string memory _dob,string memory _bloodgroup) public {\n        require(!isPatient[msg.sender],\"Already Patient account exists\");\n        require(bytes(_name).length>0);\n        require(bytes(_phone).length>0);\n        require(bytes(_gender).length>0);\n        require(bytes(_dob).length>0);\n        require(bytes(_bloodgroup).length>0);        \n        patientList.push(msg.sender);\n        pindex = pindex + 1;\n        isPatient[msg.sender]=true;\n        patients[msg.sender].id=pindex;\n        patients[msg.sender].name=_name;\n        patients[msg.sender].phone=_phone;\n        patients[msg.sender].gender=_gender;\n        patients[msg.sender].dob=_dob;\n        patients[msg.sender].bloodgroup=_bloodgroup;\n        patients[msg.sender].addr=msg.sender;\n\n        \n    }\n    \n    function getPatientDetails(address _addr) public view returns(string memory _name,string memory _phone,string memory _gender,string memory _dob,string memory _bloodgroup){\n        require(isPatient[_addr],\"No Patients found at the given address\");\n        patient memory pat = patients[_addr];\n        return (pat.name,pat.phone,pat.gender,pat.dob,pat.bloodgroup);\n    }\n\n//get the length of records of particular address  \n     function getrecordlist(address _addr)  public view returns (uint256 ){  \n     return (patients[_addr].records.length);\n     }\n\n//get length of verified doctor\n     function getdoctorslist() public view returns(uint256){\n        return  verifieddoctorlist.length;\n    }\n//get the length of doctor's added in blockchain\nfunction getdoctorlist() public view returns(uint256){\n        return doctorList.length;\n    }\n//get patients record \n    function getPatientRecords(address _addr, uint256 _id) public view \n    returns(string memory dname, string memory reason ,string memory visitedDate, string memory ipfs){\n        require(isPatient[_addr],\"No patient found at the given address\");\n        if(Authorized[_addr][msg.sender] || msg.sender == _addr){\n                return( patients[_addr].records[_id].dname,patients[_addr].records[_id].reason,\n                patients[_addr].records[_id].visitedDate,patients[_addr].records[_id].ipfs\n                    );\n        }\n        else \n        revert(\"Record cannot be accessed\");\n    }\n\n\n//add doctor \n    function addDoctor(string memory _name,string memory _hname,string memory _faculty,string memory _contact,uint256 license) public {\n        require(!isDoctor[msg.sender],\"Already Registered\");\n        require(msg.sender != owner,\"Contract owner cannot register as doctor\");\n        require(bytes(_name).length>0);\n        require(bytes(_hname).length>0);\n        require(bytes(_faculty).length>0);\n        require(bytes(_contact).length>0);\n        require(license>0);  \n        address _addr = msg.sender;\n        doctorList.push(_addr);\n\n        dindex = dindex + 1;\n        isDoctor[_addr]=true;\n        doctors[_addr].name = _name;\n        doctors[_addr].contact =_contact;\n        doctors[_addr].hname = _hname;\n        doctors[_addr].faculty =_faculty; \n        doctors[_addr].addr = _addr;\n        doctors[_addr].licenseno = license;\n        emit adddoctor(owner,msg.sender);\n    }\n\n//get doctor's details  for verification\n    function getdoctor(uint256 _id) public view returns(uint256 id, string memory name,string memory hospital, string memory _faculty,address addr,bool isApproved,uint256 licenseno){\n    //  require(!doctors[doctorList[_id]].isApproved); \n        doctor memory doc = doctors[doctorList[_id]];\n        return (doc.id,doc.name,doc.hname,doc.faculty,doc.addr,doc.isApproved,doc.licenseno) ; \n    }\n    \n //get the verified doctor by their id \n    function getDoctorbyId(uint256 _id) public view returns(uint256 id,string memory name , string memory contact ,string memory hname ,string memory faculty ,address addr , bool isApproved,uint256 licenseno)  {\n    \n        doctor memory doc = doctors[verifieddoctorlist[_id]];\n        return (doc.id,doc.name,doc.contact,doc.hname,doc.faculty,doc.addr, doc.isApproved,doc.licenseno);\n    }\n\n function getDoctorbyName(string memory _name) public view returns(uint256 id,string memory name , string memory contact ,string memory hname ,string memory faculty ,address addr , bool isApproved,uint256 licenseno)  {\n        uint256 i=0;\n        for(i = 0;i<doctorList.length;i++){\n        if(keccak256(bytes(doctors[doctorList[i]].name)) == keccak256(bytes(_name))){\n            break;\n        }\n    }    \n        require(keccak256(bytes(doctors[doctorList[i]].name)) == keccak256(bytes(_name)),\"Doctor doesn't exists with the given name\");\n        doctor memory doc = doctors[doctorList[i]];\n        return (doc.id,doc.name,doc.contact,doc.hname,doc.faculty,doc.addr, doc.isApproved,doc.licenseno);\n    }\n    \n\n function getDoctorByAddress(address _address) public view returns(uint256 id,string memory name , string memory contact ,string memory hname ,string memory faculty ,address addr , bool isApproved) {\n        require(doctors[_address].isApproved,\"Doctor is not Approved or doesn't exist\");\n        doctor memory doc = doctors[_address];\n        return (doc.id,doc.name,doc.contact,doc.hname,doc.faculty,doc.addr,doc.isApproved);\n    }  \n\n//Give access to certain address\n    function grantAccess(address _addr) public returns (bool success)\n    {   require(msg.sender != _addr,\"You cannot add yourself\");\n        require(isDoctor[_addr],\"Not registered as doctor\");\n        require(!Authorized[msg.sender][_addr],\"User is already authorized\");\n        Authorized[msg.sender][_addr] = true;\n        return true;\n    }\n\n//Revoke access of patient records fromcertain address\n      function revoke_access(address _addr)  public returns (bool success){\n        require(msg.sender!=_addr,\"You can't remove yourself\");\n        require(Authorized[msg.sender][_addr],\"User is not authorized yet\");\n        Authorized[msg.sender][_addr] = false;\n        return true;\n    }\n//verfiy the doctor\n    function verifydoctor(address _addr) public{\n        require(owner == msg.sender,\"Only owner can call this function\");\n        require(!doctors[_addr].isApproved,\"Already registered\");\n        doctors[_addr].isApproved = true;\n        verifieddoctorlist.push(_addr);\n        \n        \n    }\n    \n\n}",
  "sourcePath": "/home/anu/Blockchain/Medossier/contracts/meDossier.sol",
  "compiler": {
    "name": "solc",
    "version": "0.8.6+commit.11564f7e.Emscripten.clang"
  },
  "schemaVersion": "3.4.0",
  "updatedAt": "2021-06-24T15:43:26.919Z",
  "networkType": "ethereum",
  "devdoc": {
    "kind": "dev",
    "methods": {},
    "version": 1
  },
  "userdoc": {
    "kind": "user",
    "methods": {},
    "version": 1
  }
}